{
  "contractName": "SolnSquareVerifier",
  "abi": [
    {
      "inputs": [
        {
          "internalType": "address",
          "name": "verifierAddress",
          "type": "address"
        },
        {
          "internalType": "string",
          "name": "name",
          "type": "string"
        },
        {
          "internalType": "string",
          "name": "symbol",
          "type": "string"
        }
      ],
      "payable": false,
      "stateMutability": "nonpayable",
      "type": "constructor",
      "signature": "constructor"
    },
    {
      "anonymous": false,
      "inputs": [
        {
          "indexed": true,
          "internalType": "address",
          "name": "owner",
          "type": "address"
        },
        {
          "indexed": true,
          "internalType": "address",
          "name": "approved",
          "type": "address"
        },
        {
          "indexed": true,
          "internalType": "uint256",
          "name": "tokenId",
          "type": "uint256"
        }
      ],
      "name": "Approval",
      "type": "event",
      "signature": "0x8c5be1e5ebec7d5bd14f71427d1e84f3dd0314c0f7b2291e5b200ac8c7c3b925"
    },
    {
      "anonymous": false,
      "inputs": [
        {
          "indexed": true,
          "internalType": "address",
          "name": "owner",
          "type": "address"
        },
        {
          "indexed": true,
          "internalType": "address",
          "name": "operator",
          "type": "address"
        },
        {
          "indexed": false,
          "internalType": "bool",
          "name": "approved",
          "type": "bool"
        }
      ],
      "name": "ApprovalForAll",
      "type": "event",
      "signature": "0x17307eab39ab6107e8899845ad3d59bd9653f200f220920489ca2b5937696c31"
    },
    {
      "anonymous": false,
      "inputs": [
        {
          "indexed": true,
          "internalType": "address",
          "name": "newOwner",
          "type": "address"
        }
      ],
      "name": "OwnershipTransferred",
      "type": "event",
      "signature": "0x04dba622d284ed0014ee4b9a6a68386be1a4c08a4913ae272de89199cc686163"
    },
    {
      "anonymous": false,
      "inputs": [
        {
          "indexed": true,
          "internalType": "address",
          "name": "account",
          "type": "address"
        }
      ],
      "name": "Paused",
      "type": "event",
      "signature": "0x62e78cea01bee320cd4e420270b5ea74000d11b0c9f74754ebdbfc544b05a258"
    },
    {
      "anonymous": false,
      "inputs": [
        {
          "indexed": false,
          "internalType": "address",
          "name": "account",
          "type": "address"
        }
      ],
      "name": "SolutionAdded",
      "type": "event",
      "signature": "0x209e782baeeecf4956303cb3e836fdf3f7279e6729ebccf2d309c292aedd3aeb"
    },
    {
      "anonymous": false,
      "inputs": [
        {
          "indexed": true,
          "internalType": "address",
          "name": "from",
          "type": "address"
        },
        {
          "indexed": true,
          "internalType": "address",
          "name": "to",
          "type": "address"
        },
        {
          "indexed": true,
          "internalType": "uint256",
          "name": "tokenId",
          "type": "uint256"
        }
      ],
      "name": "Transfer",
      "type": "event",
      "signature": "0xddf252ad1be2c89b69c2b068fc378daa952ba7f163c4a11628f55a4df523b3ef"
    },
    {
      "anonymous": false,
      "inputs": [
        {
          "indexed": true,
          "internalType": "address",
          "name": "account",
          "type": "address"
        }
      ],
      "name": "Unpaused",
      "type": "event",
      "signature": "0x5db9ee0a495bf2e6ff9c91a7834c1ba4fdd244a5e8aa4e537bd38aeae4b073aa"
    },
    {
      "constant": false,
      "inputs": [
        {
          "internalType": "bytes32",
          "name": "_myid",
          "type": "bytes32"
        },
        {
          "internalType": "string",
          "name": "_result",
          "type": "string"
        }
      ],
      "name": "__callback",
      "outputs": [],
      "payable": false,
      "stateMutability": "nonpayable",
      "type": "function",
      "signature": "0x27dc297e"
    },
    {
      "constant": false,
      "inputs": [
        {
          "internalType": "bytes32",
          "name": "_myid",
          "type": "bytes32"
        },
        {
          "internalType": "string",
          "name": "_result",
          "type": "string"
        },
        {
          "internalType": "bytes",
          "name": "_proof",
          "type": "bytes"
        }
      ],
      "name": "__callback",
      "outputs": [],
      "payable": false,
      "stateMutability": "nonpayable",
      "type": "function",
      "signature": "0x38bbfa50"
    },
    {
      "constant": false,
      "inputs": [
        {
          "internalType": "address",
          "name": "to",
          "type": "address"
        },
        {
          "internalType": "uint256",
          "name": "tokenId",
          "type": "uint256"
        }
      ],
      "name": "approve",
      "outputs": [],
      "payable": false,
      "stateMutability": "nonpayable",
      "type": "function",
      "signature": "0x095ea7b3"
    },
    {
      "constant": true,
      "inputs": [
        {
          "internalType": "address",
          "name": "owner",
          "type": "address"
        }
      ],
      "name": "balanceOf",
      "outputs": [
        {
          "internalType": "uint256",
          "name": "",
          "type": "uint256"
        }
      ],
      "payable": false,
      "stateMutability": "view",
      "type": "function",
      "signature": "0x70a08231"
    },
    {
      "constant": true,
      "inputs": [],
      "name": "baseTokenURI",
      "outputs": [
        {
          "internalType": "string",
          "name": "",
          "type": "string"
        }
      ],
      "payable": false,
      "stateMutability": "view",
      "type": "function",
      "signature": "0xd547cfb7"
    },
    {
      "constant": true,
      "inputs": [
        {
          "internalType": "uint256",
          "name": "tokenId",
          "type": "uint256"
        }
      ],
      "name": "getApproved",
      "outputs": [
        {
          "internalType": "address",
          "name": "",
          "type": "address"
        }
      ],
      "payable": false,
      "stateMutability": "view",
      "type": "function",
      "signature": "0x081812fc"
    },
    {
      "constant": true,
      "inputs": [
        {
          "internalType": "address",
          "name": "owner",
          "type": "address"
        },
        {
          "internalType": "address",
          "name": "operator",
          "type": "address"
        }
      ],
      "name": "isApprovedForAll",
      "outputs": [
        {
          "internalType": "bool",
          "name": "",
          "type": "bool"
        }
      ],
      "payable": false,
      "stateMutability": "view",
      "type": "function",
      "signature": "0xe985e9c5"
    },
    {
      "constant": false,
      "inputs": [
        {
          "internalType": "address",
          "name": "to",
          "type": "address"
        },
        {
          "internalType": "uint256",
          "name": "tokenId",
          "type": "uint256"
        },
        {
          "internalType": "string",
          "name": "tokenURI",
          "type": "string"
        }
      ],
      "name": "mint",
      "outputs": [
        {
          "internalType": "bool",
          "name": "",
          "type": "bool"
        }
      ],
      "payable": false,
      "stateMutability": "nonpayable",
      "type": "function",
      "signature": "0xd3fc9864"
    },
    {
      "constant": true,
      "inputs": [],
      "name": "name",
      "outputs": [
        {
          "internalType": "string",
          "name": "",
          "type": "string"
        }
      ],
      "payable": false,
      "stateMutability": "view",
      "type": "function",
      "signature": "0x06fdde03"
    },
    {
      "constant": true,
      "inputs": [],
      "name": "owner",
      "outputs": [
        {
          "internalType": "address",
          "name": "",
          "type": "address"
        }
      ],
      "payable": false,
      "stateMutability": "view",
      "type": "function",
      "signature": "0x8da5cb5b"
    },
    {
      "constant": true,
      "inputs": [
        {
          "internalType": "uint256",
          "name": "tokenId",
          "type": "uint256"
        }
      ],
      "name": "ownerOf",
      "outputs": [
        {
          "internalType": "address",
          "name": "",
          "type": "address"
        }
      ],
      "payable": false,
      "stateMutability": "view",
      "type": "function",
      "signature": "0x6352211e"
    },
    {
      "constant": false,
      "inputs": [],
      "name": "removePause",
      "outputs": [],
      "payable": false,
      "stateMutability": "nonpayable",
      "type": "function",
      "signature": "0xd235bb18"
    },
    {
      "constant": false,
      "inputs": [
        {
          "internalType": "address",
          "name": "from",
          "type": "address"
        },
        {
          "internalType": "address",
          "name": "to",
          "type": "address"
        },
        {
          "internalType": "uint256",
          "name": "tokenId",
          "type": "uint256"
        }
      ],
      "name": "safeTransferFrom",
      "outputs": [],
      "payable": false,
      "stateMutability": "nonpayable",
      "type": "function",
      "signature": "0x42842e0e"
    },
    {
      "constant": false,
      "inputs": [
        {
          "internalType": "address",
          "name": "from",
          "type": "address"
        },
        {
          "internalType": "address",
          "name": "to",
          "type": "address"
        },
        {
          "internalType": "uint256",
          "name": "tokenId",
          "type": "uint256"
        },
        {
          "internalType": "bytes",
          "name": "_data",
          "type": "bytes"
        }
      ],
      "name": "safeTransferFrom",
      "outputs": [],
      "payable": false,
      "stateMutability": "nonpayable",
      "type": "function",
      "signature": "0xb88d4fde"
    },
    {
      "constant": false,
      "inputs": [
        {
          "internalType": "address",
          "name": "to",
          "type": "address"
        },
        {
          "internalType": "bool",
          "name": "approved",
          "type": "bool"
        }
      ],
      "name": "setApprovalForAll",
      "outputs": [],
      "payable": false,
      "stateMutability": "nonpayable",
      "type": "function",
      "signature": "0xa22cb465"
    },
    {
      "constant": false,
      "inputs": [],
      "name": "setPause",
      "outputs": [],
      "payable": false,
      "stateMutability": "nonpayable",
      "type": "function",
      "signature": "0xd431b1ac"
    },
    {
      "constant": true,
      "inputs": [
        {
          "internalType": "bytes4",
          "name": "interfaceId",
          "type": "bytes4"
        }
      ],
      "name": "supportsInterface",
      "outputs": [
        {
          "internalType": "bool",
          "name": "",
          "type": "bool"
        }
      ],
      "payable": false,
      "stateMutability": "view",
      "type": "function",
      "signature": "0x01ffc9a7"
    },
    {
      "constant": true,
      "inputs": [],
      "name": "symbol",
      "outputs": [
        {
          "internalType": "string",
          "name": "",
          "type": "string"
        }
      ],
      "payable": false,
      "stateMutability": "view",
      "type": "function",
      "signature": "0x95d89b41"
    },
    {
      "constant": true,
      "inputs": [
        {
          "internalType": "uint256",
          "name": "index",
          "type": "uint256"
        }
      ],
      "name": "tokenByIndex",
      "outputs": [
        {
          "internalType": "uint256",
          "name": "",
          "type": "uint256"
        }
      ],
      "payable": false,
      "stateMutability": "view",
      "type": "function",
      "signature": "0x4f6ccce7"
    },
    {
      "constant": true,
      "inputs": [
        {
          "internalType": "address",
          "name": "owner",
          "type": "address"
        },
        {
          "internalType": "uint256",
          "name": "index",
          "type": "uint256"
        }
      ],
      "name": "tokenOfOwnerByIndex",
      "outputs": [
        {
          "internalType": "uint256",
          "name": "",
          "type": "uint256"
        }
      ],
      "payable": false,
      "stateMutability": "view",
      "type": "function",
      "signature": "0x2f745c59"
    },
    {
      "constant": true,
      "inputs": [
        {
          "internalType": "uint256",
          "name": "tokenId",
          "type": "uint256"
        }
      ],
      "name": "tokenURI",
      "outputs": [
        {
          "internalType": "string",
          "name": "",
          "type": "string"
        }
      ],
      "payable": false,
      "stateMutability": "view",
      "type": "function",
      "signature": "0xc87b56dd"
    },
    {
      "constant": true,
      "inputs": [],
      "name": "totalSupply",
      "outputs": [
        {
          "internalType": "uint256",
          "name": "",
          "type": "uint256"
        }
      ],
      "payable": false,
      "stateMutability": "view",
      "type": "function",
      "signature": "0x18160ddd"
    },
    {
      "constant": false,
      "inputs": [
        {
          "internalType": "address",
          "name": "from",
          "type": "address"
        },
        {
          "internalType": "address",
          "name": "to",
          "type": "address"
        },
        {
          "internalType": "uint256",
          "name": "tokenId",
          "type": "uint256"
        }
      ],
      "name": "transferFrom",
      "outputs": [],
      "payable": false,
      "stateMutability": "nonpayable",
      "type": "function",
      "signature": "0x23b872dd"
    },
    {
      "constant": false,
      "inputs": [
        {
          "internalType": "address",
          "name": "newOwner",
          "type": "address"
        }
      ],
      "name": "transferOwnership",
      "outputs": [],
      "payable": false,
      "stateMutability": "nonpayable",
      "type": "function",
      "signature": "0xf2fde38b"
    },
    {
      "constant": false,
      "inputs": [
        {
          "internalType": "bytes32",
          "name": "solutionId",
          "type": "bytes32"
        },
        {
          "internalType": "uint256",
          "name": "tokenId",
          "type": "uint256"
        },
        {
          "internalType": "address",
          "name": "solutionAddress",
          "type": "address"
        }
      ],
      "name": "addSolution",
      "outputs": [],
      "payable": false,
      "stateMutability": "nonpayable",
      "type": "function",
      "signature": "0x4f8bd9b6"
    },
    {
      "constant": false,
      "inputs": [
        {
          "internalType": "address",
          "name": "to",
          "type": "address"
        },
        {
          "internalType": "uint256",
          "name": "tokenId",
          "type": "uint256"
        },
        {
          "internalType": "uint256[2]",
          "name": "a",
          "type": "uint256[2]"
        },
        {
          "internalType": "uint256[2][2]",
          "name": "b",
          "type": "uint256[2][2]"
        },
        {
          "internalType": "uint256[2]",
          "name": "c",
          "type": "uint256[2]"
        },
        {
          "internalType": "uint256[2]",
          "name": "input",
          "type": "uint256[2]"
        }
      ],
      "name": "mintNewNFT",
      "outputs": [],
      "payable": false,
      "stateMutability": "nonpayable",
      "type": "function",
      "signature": "0x6aa69d4e"
    }
  ],
  "bytecode": "0x60806040523480156200001157600080fd5b506040516200430d3803806200430d83398181016040526200003791908101906200047f565b818181816040518060600160405280603f8152602001620042ce603f9139336000806101000a81548173ffffffffffffffffffffffffffffffffffffffff021916908373ffffffffffffffffffffffffffffffffffffffff1602179055506000809054906101000a900473ffffffffffffffffffffffffffffffffffffffff1673ffffffffffffffffffffffffffffffffffffffff167f04dba622d284ed0014ee4b9a6a68386be1a4c08a4913ae272de89199cc68616360405160405180910390a260008060146101000a81548160ff021916908315150217905550620001506301ffc9a77c010000000000000000000000000000000000000000000000000000000002620002a1640100000000026401000000009004565b6200018d6380ac58cd7c010000000000000000000000000000000000000000000000000000000002620002a1640100000000026401000000009004565b620001ca63780e9d637c010000000000000000000000000000000000000000000000000000000002620002a1640100000000026401000000009004565b82600f9080519060200190620001e29291906200035d565b508160109080519060200190620001fb9291906200035d565b508060119080519060200190620002149291906200035d565b5062000252635b5e139f7c010000000000000000000000000000000000000000000000000000000002620002a1640100000000026401000000009004565b505050505082601360006101000a81548173ffffffffffffffffffffffffffffffffffffffff021916908373ffffffffffffffffffffffffffffffffffffffff160217905550505050620005e6565b63ffffffff7c010000000000000000000000000000000000000000000000000000000002817bffffffffffffffffffffffffffffffffffffffffffffffffffffffff19161415620002f157600080fd5b6001806000837bffffffffffffffffffffffffffffffffffffffffffffffffffffffff19167bffffffffffffffffffffffffffffffffffffffffffffffffffffffff1916815260200190815260200160002060006101000a81548160ff02191690831515021790555050565b828054600181600116156101000203166002900490600052602060002090601f016020900481019282601f10620003a057805160ff1916838001178555620003d1565b82800160010185558215620003d1579182015b82811115620003d0578251825591602001919060010190620003b3565b5b509050620003e09190620003e4565b5090565b6200040991905b8082111562000405576000816000905550600101620003eb565b5090565b90565b6000815190506200041d81620005cc565b92915050565b600082601f8301126200043557600080fd5b81516200044c620004468262000535565b62000507565b915080825260208301602083018583830111156200046957600080fd5b6200047683828462000596565b50505092915050565b6000806000606084860312156200049557600080fd5b6000620004a5868287016200040c565b935050602084015167ffffffffffffffff811115620004c357600080fd5b620004d18682870162000423565b925050604084015167ffffffffffffffff811115620004ef57600080fd5b620004fd8682870162000423565b9150509250925092565b6000604051905081810181811067ffffffffffffffff821117156200052b57600080fd5b8060405250919050565b600067ffffffffffffffff8211156200054d57600080fd5b601f19601f8301169050602081019050919050565b60006200056f8262000576565b9050919050565b600073ffffffffffffffffffffffffffffffffffffffff82169050919050565b60005b83811015620005b657808201518184015260208101905062000599565b83811115620005c6576000848401525b50505050565b620005d78162000562565b8114620005e357600080fd5b50565b613cd880620005f66000396000f3fe608060405234801561001057600080fd5b50600436106101ab576000357c0100000000000000000000000000000000000000000000000000000000900480636aa69d4e116100fb578063c87b56dd116100b4578063d431b1ac1161008e578063d431b1ac146104ae578063d547cfb7146104b8578063e985e9c5146104d6578063f2fde38b14610506576101ab565b8063c87b56dd14610444578063d235bb1814610474578063d3fc98641461047e576101ab565b80636aa69d4e1461038457806370a08231146103a05780638da5cb5b146103d057806395d89b41146103ee578063a22cb4651461040c578063b88d4fde14610428576101ab565b806327dc297e1161016857806342842e0e1161014257806342842e0e146102ec5780634f6ccce7146103085780634f8bd9b6146103385780636352211e14610354576101ab565b806327dc297e146102845780632f745c59146102a057806338bbfa50146102d0576101ab565b806301ffc9a7146101b057806306fdde03146101e0578063081812fc146101fe578063095ea7b31461022e57806318160ddd1461024a57806323b872dd14610268575b600080fd5b6101ca60048036036101c59190810190612f33565b610522565b6040516101d79190613778565b60405180910390f35b6101e861058a565b6040516101f59190613793565b60405180910390f35b61021860048036036102139190810190612f85565b61062c565b60405161022591906136ca565b60405180910390f35b61024860048036036102439190810190612cb9565b610669565b005b610252610816565b60405161025f9190613935565b60405180910390f35b610282600480360361027d9190810190612bb3565b610823565b005b61029e60048036036102999190810190612e11565b610846565b005b6102ba60048036036102b59190810190612cb9565b610889565b6040516102c79190613935565b60405180910390f35b6102ea60048036036102e59190810190612e65565b6108fc565b005b61030660048036036103019190810190612bb3565b610901565b005b610322600480360361031d9190810190612f85565b610921565b60405161032f9190613935565b60405180910390f35b610352600480360361034d9190810190612ee4565b610955565b005b61036e60048036036103699190810190612f85565b610acf565b60405161037b91906136ca565b60405180910390f35b61039e60048036036103999190810190612cf5565b610b0c565b005b6103ba60048036036103b59190810190612b4e565b610d22565b6040516103c79190613935565b60405180910390f35b6103d8610d72565b6040516103e591906136ca565b60405180910390f35b6103f6610d9b565b6040516104039190613793565b60405180910390f35b61042660048036036104219190810190612c7d565b610e3d565b005b610442600480360361043d9190810190612c02565b610f73565b005b61045e60048036036104599190810190612f85565b610f99565b60405161046b9190613793565b60405180910390f35b61047c611060565b005b61049860048036036104939190810190612d81565b6111a4565b6040516104a59190613778565b60405180910390f35b6104b6611253565b005b6104c0611398565b6040516104cd9190613793565b60405180910390f35b6104f060048036036104eb9190810190612b77565b61143a565b6040516104fd9190613778565b60405180910390f35b610520600480360361051b9190810190612b4e565b6114ce565b005b600060016000837bffffffffffffffffffffffffffffffffffffffffffffffffffffffff19167bffffffffffffffffffffffffffffffffffffffffffffffffffffffff1916815260200190815260200160002060009054906101000a900460ff169050919050565b6060600f8054600181600116156101000203166002900480601f0160208091040260200160405190810160405280929190818152602001828054600181600116156101000203166002900480156106225780601f106105f757610100808354040283529160200191610622565b820191906000526020600020905b81548152906001019060200180831161060557829003601f168201915b5050505050905090565b60006003600083815260200190815260200160002060009054906101000a900473ffffffffffffffffffffffffffffffffffffffff169050919050565b600061067482610acf565b90508273ffffffffffffffffffffffffffffffffffffffff168173ffffffffffffffffffffffffffffffffffffffff1614156106e5576040517f08c379a00000000000000000000000000000000000000000000000000000000081526004016106dc906138f5565b60405180910390fd5b8073ffffffffffffffffffffffffffffffffffffffff163373ffffffffffffffffffffffffffffffffffffffff1614806107255750610724813361143a565b5b610764576040517f08c379a000000000000000000000000000000000000000000000000000000000815260040161075b90613895565b60405180910390fd5b826003600084815260200190815260200160002060006101000a81548173ffffffffffffffffffffffffffffffffffffffff021916908373ffffffffffffffffffffffffffffffffffffffff160217905550818373ffffffffffffffffffffffffffffffffffffffff168273ffffffffffffffffffffffffffffffffffffffff167f8c5be1e5ebec7d5bd14f71427d1e84f3dd0314c0f7b2291e5b200ac8c7c3b92560405160405180910390a4505050565b6000600880549050905090565b61082d338261163e565b61083657600080fd5b6108418383836116d3565b505050565b610885828260006040519080825280601f01601f19166020018201604052801561087f5781602001600182028038833980820191505090505b506108fc565b5050565b600061089483610d22565b821061089f57600080fd5b600660008473ffffffffffffffffffffffffffffffffffffffff1673ffffffffffffffffffffffffffffffffffffffff16815260200190815260200160002082815481106108e957fe5b9060005260206000200154905092915050565b505050565b61091c83838360405180602001604052806000815250610f73565b505050565b600061092b610816565b821061093657600080fd5b6008828154811061094357fe5b90600052602060002001549050919050565b601460405180604001604052808481526020018373ffffffffffffffffffffffffffffffffffffffff16815250908060018154018082558091505090600182039060005260206000209060020201600090919290919091506000820151816000015560208201518160010160006101000a81548173ffffffffffffffffffffffffffffffffffffffff021916908373ffffffffffffffffffffffffffffffffffffffff16021790555050505060405180604001604052808381526020018273ffffffffffffffffffffffffffffffffffffffff16815250601560008581526020019081526020016000206000820151816000015560208201518160010160006101000a81548173ffffffffffffffffffffffffffffffffffffffff021916908373ffffffffffffffffffffffffffffffffffffffff1602179055509050507f209e782baeeecf4956303cb3e836fdf3f7279e6729ebccf2d309c292aedd3aeb81604051610ac291906136ca565b60405180910390a1505050565b60006002600083815260200190815260200160002060009054906101000a900473ffffffffffffffffffffffffffffffffffffffff169050919050565b6000610b1a858585856116f7565b9050600073ffffffffffffffffffffffffffffffffffffffff166015600083815260200190815260200160002060010160009054906101000a900473ffffffffffffffffffffffffffffffffffffffff1673ffffffffffffffffffffffffffffffffffffffff1614610bc1576040517f08c379a0000000000000000000000000000000000000000000000000000000008152600401610bb8906138b5565b60405180910390fd5b601360009054906101000a900473ffffffffffffffffffffffffffffffffffffffff1673ffffffffffffffffffffffffffffffffffffffff1663621e9ec0868686866040518563ffffffff167c0100000000000000000000000000000000000000000000000000000000028152600401610c3e9493929190613731565b60206040518083038186803b158015610c5657600080fd5b505afa158015610c6a573d6000803e3d6000fd5b505050506040513d601f19601f82011682018060405250610c8e9190810190612de8565b610ccd576040517f08c379a0000000000000000000000000000000000000000000000000000000008152600401610cc4906137f5565b60405180910390fd5b610cd8818789610955565b610d1887876040518060400160405280600881526020017f746f6b656e5552490000000000000000000000000000000000000000000000008152506111a4565b5050505050505050565b6000610d6b600460008473ffffffffffffffffffffffffffffffffffffffff1673ffffffffffffffffffffffffffffffffffffffff168152602001908152602001600020611730565b9050919050565b60008060009054906101000a900473ffffffffffffffffffffffffffffffffffffffff16905090565b606060108054600181600116156101000203166002900480601f016020809104026020016040519081016040528092919081815260200182805460018160011615610100020316600290048015610e335780601f10610e0857610100808354040283529160200191610e33565b820191906000526020600020905b815481529060010190602001808311610e1657829003601f168201915b5050505050905090565b3373ffffffffffffffffffffffffffffffffffffffff168273ffffffffffffffffffffffffffffffffffffffff161415610e7657600080fd5b80600560003373ffffffffffffffffffffffffffffffffffffffff1673ffffffffffffffffffffffffffffffffffffffff16815260200190815260200160002060008473ffffffffffffffffffffffffffffffffffffffff1673ffffffffffffffffffffffffffffffffffffffff16815260200190815260200160002060006101000a81548160ff0219169083151502179055508173ffffffffffffffffffffffffffffffffffffffff163373ffffffffffffffffffffffffffffffffffffffff167f17307eab39ab6107e8899845ad3d59bd9653f200f220920489ca2b5937696c3183604051610f679190613778565b60405180910390a35050565b610f7e848484610823565b610f8a8484848461173e565b610f9357600080fd5b50505050565b6060610fa48261188d565b610fad57600080fd5b601260008381526020019081526020016000208054600181600116156101000203166002900480601f0160208091040260200160405190810160405280929190818152602001828054600181600116156101000203166002900480156110545780601f1061102957610100808354040283529160200191611054565b820191906000526020600020905b81548152906001019060200180831161103757829003601f168201915b50505050509050919050565b6000809054906101000a900473ffffffffffffffffffffffffffffffffffffffff1673ffffffffffffffffffffffffffffffffffffffff163373ffffffffffffffffffffffffffffffffffffffff16146110ef576040517f08c379a00000000000000000000000000000000000000000000000000000000081526004016110e690613815565b60405180910390fd5b60011515600060149054906101000a900460ff16151514611145576040517f08c379a000000000000000000000000000000000000000000000000000000000815260040161113c906138d5565b60405180910390fd5b60008060146101000a81548160ff0219169083151502179055503373ffffffffffffffffffffffffffffffffffffffff167f5db9ee0a495bf2e6ff9c91a7834c1ba4fdd244a5e8aa4e537bd38aeae4b073aa60405160405180910390a2565b60008060009054906101000a900473ffffffffffffffffffffffffffffffffffffffff1673ffffffffffffffffffffffffffffffffffffffff163373ffffffffffffffffffffffffffffffffffffffff1614611235576040517f08c379a000000000000000000000000000000000000000000000000000000000815260040161122c90613815565b60405180910390fd5b61123f84846118ff565b61124883611920565b600190509392505050565b6000809054906101000a900473ffffffffffffffffffffffffffffffffffffffff1673ffffffffffffffffffffffffffffffffffffffff163373ffffffffffffffffffffffffffffffffffffffff16146112e2576040517f08c379a00000000000000000000000000000000000000000000000000000000081526004016112d990613815565b60405180910390fd5b60001515600060149054906101000a900460ff16151514611338576040517f08c379a000000000000000000000000000000000000000000000000000000000815260040161132f90613855565b60405180910390fd5b6001600060146101000a81548160ff0219169083151502179055503373ffffffffffffffffffffffffffffffffffffffff167f62e78cea01bee320cd4e420270b5ea74000d11b0c9f74754ebdbfc544b05a25860405160405180910390a2565b606060118054600181600116156101000203166002900480601f0160208091040260200160405190810160405280929190818152602001828054600181600116156101000203166002900480156114305780601f1061140557610100808354040283529160200191611430565b820191906000526020600020905b81548152906001019060200180831161141357829003601f168201915b5050505050905090565b6000600560008473ffffffffffffffffffffffffffffffffffffffff1673ffffffffffffffffffffffffffffffffffffffff16815260200190815260200160002060008373ffffffffffffffffffffffffffffffffffffffff1673ffffffffffffffffffffffffffffffffffffffff16815260200190815260200160002060009054906101000a900460ff16905092915050565b6000809054906101000a900473ffffffffffffffffffffffffffffffffffffffff1673ffffffffffffffffffffffffffffffffffffffff163373ffffffffffffffffffffffffffffffffffffffff161461155d576040517f08c379a000000000000000000000000000000000000000000000000000000000815260040161155490613815565b60405180910390fd5b600073ffffffffffffffffffffffffffffffffffffffff168173ffffffffffffffffffffffffffffffffffffffff16141561159757600080fd5b806000806101000a81548173ffffffffffffffffffffffffffffffffffffffff021916908373ffffffffffffffffffffffffffffffffffffffff1602179055506000809054906101000a900473ffffffffffffffffffffffffffffffffffffffff1673ffffffffffffffffffffffffffffffffffffffff167f04dba622d284ed0014ee4b9a6a68386be1a4c08a4913ae272de89199cc68616360405160405180910390a250565b60008061164a83610acf565b90508073ffffffffffffffffffffffffffffffffffffffff168473ffffffffffffffffffffffffffffffffffffffff1614806116b957508373ffffffffffffffffffffffffffffffffffffffff166116a18461062c565b73ffffffffffffffffffffffffffffffffffffffff16145b806116ca57506116c9818561143a565b5b91505092915050565b6116de838383611a3e565b6116e88382611c73565b6116f28282611e11565b505050565b600084848484604051602001611710949392919061367c565b604051602081830303815290604052805190602001209050949350505050565b600081600001549050919050565b600061175f8473ffffffffffffffffffffffffffffffffffffffff16611ed8565b61176c5760019050611885565b60008473ffffffffffffffffffffffffffffffffffffffff1663150b7a02338887876040518563ffffffff167c01000000000000000000000000000000000000000000000000000000000281526004016117c994939291906136e5565b602060405180830381600087803b1580156117e357600080fd5b505af11580156117f7573d6000803e3d6000fd5b505050506040513d601f19601f8201168201806040525061181b9190810190612f5c565b905063150b7a027c0100000000000000000000000000000000000000000000000000000000027bffffffffffffffffffffffffffffffffffffffffffffffffffffffff1916817bffffffffffffffffffffffffffffffffffffffffffffffffffffffff1916149150505b949350505050565b6000806002600084815260200190815260200160002060009054906101000a900473ffffffffffffffffffffffffffffffffffffffff169050600073ffffffffffffffffffffffffffffffffffffffff168173ffffffffffffffffffffffffffffffffffffffff161415915050919050565b6119098282611eeb565b6119138282611e11565b61191c816120f6565b5050565b6119298161188d565b611968576040517f08c379a000000000000000000000000000000000000000000000000000000000815260040161195f906137d5565b60405180910390fd5b611a1460118054600181600116156101000203166002900480601f016020809104026020016040519081016040528092919081815260200182805460018160011615610100020316600290048015611a015780601f106119d657610100808354040283529160200191611a01565b820191906000526020600020905b8154815290600101906020018083116119e457829003601f168201915b5050505050611a0f83612142565b61228e565b601260008381526020019081526020016000209080519060200190611a3a9291906127e6565b5050565b6000611a4982610acf565b90508073ffffffffffffffffffffffffffffffffffffffff168473ffffffffffffffffffffffffffffffffffffffff1614611ab9576040517f08c379a0000000000000000000000000000000000000000000000000000000008152600401611ab0906137b5565b60405180910390fd5b600073ffffffffffffffffffffffffffffffffffffffff168373ffffffffffffffffffffffffffffffffffffffff161415611b29576040517f08c379a0000000000000000000000000000000000000000000000000000000008152600401611b2090613875565b60405180910390fd5b611b32826122d2565b611b79600460008673ffffffffffffffffffffffffffffffffffffffff1673ffffffffffffffffffffffffffffffffffffffff168152602001908152602001600020612390565b611bc0600460008573ffffffffffffffffffffffffffffffffffffffff1673ffffffffffffffffffffffffffffffffffffffff1681526020019081526020016000206123b3565b826002600084815260200190815260200160002060006101000a81548173ffffffffffffffffffffffffffffffffffffffff021916908373ffffffffffffffffffffffffffffffffffffffff160217905550818373ffffffffffffffffffffffffffffffffffffffff168573ffffffffffffffffffffffffffffffffffffffff167fddf252ad1be2c89b69c2b068fc378daa952ba7f163c4a11628f55a4df523b3ef60405160405180910390a450505050565b6000611ccb6001600660008673ffffffffffffffffffffffffffffffffffffffff1673ffffffffffffffffffffffffffffffffffffffff168152602001908152602001600020805490506123c990919063ffffffff16565b9050600060076000848152602001908152602001600020549050818114611db8576000600660008673ffffffffffffffffffffffffffffffffffffffff1673ffffffffffffffffffffffffffffffffffffffff1681526020019081526020016000208381548110611d3857fe5b9060005260206000200154905080600660008773ffffffffffffffffffffffffffffffffffffffff1673ffffffffffffffffffffffffffffffffffffffff1681526020019081526020016000208381548110611d9057fe5b9060005260206000200181905550816007600083815260200190815260200160002081905550505b600660008573ffffffffffffffffffffffffffffffffffffffff1673ffffffffffffffffffffffffffffffffffffffff168152602001908152602001600020805480919060019003611e0a9190612866565b5050505050565b600660008373ffffffffffffffffffffffffffffffffffffffff1673ffffffffffffffffffffffffffffffffffffffff168152602001908152602001600020805490506007600083815260200190815260200160002081905550600660008373ffffffffffffffffffffffffffffffffffffffff1673ffffffffffffffffffffffffffffffffffffffff1681526020019081526020016000208190806001815401808255809150509060018203906000526020600020016000909192909190915055505050565b600080823b905060008111915050919050565b600073ffffffffffffffffffffffffffffffffffffffff166002600083815260200190815260200160002060009054906101000a900473ffffffffffffffffffffffffffffffffffffffff1673ffffffffffffffffffffffffffffffffffffffff1614611f8d576040517f08c379a0000000000000000000000000000000000000000000000000000000008152600401611f8490613915565b60405180910390fd5b600073ffffffffffffffffffffffffffffffffffffffff168273ffffffffffffffffffffffffffffffffffffffff161415611ffd576040517f08c379a0000000000000000000000000000000000000000000000000000000008152600401611ff490613835565b60405180910390fd5b816002600083815260200190815260200160002060006101000a81548173ffffffffffffffffffffffffffffffffffffffff021916908373ffffffffffffffffffffffffffffffffffffffff160217905550612096600460008473ffffffffffffffffffffffffffffffffffffffff1673ffffffffffffffffffffffffffffffffffffffff1681526020019081526020016000206123b3565b808273ffffffffffffffffffffffffffffffffffffffff16600073ffffffffffffffffffffffffffffffffffffffff167fddf252ad1be2c89b69c2b068fc378daa952ba7f163c4a11628f55a4df523b3ef60405160405180910390a45050565b6008805490506009600083815260200190815260200160002081905550600881908060018154018082558091505090600182039060005260206000200160009091929091909150555050565b6060600082141561218a576040518060400160405280600181526020017f30000000000000000000000000000000000000000000000000000000000000008152509050612289565b600082905060005b600082146121b4578080600101915050600a82816121ac57fe5b049150612192565b6060816040519080825280601f01601f1916602001820160405280156121e95781602001600182028038833980820191505090505b50905060006001830390505b6000861461228157600a868161220757fe5b066030017f0100000000000000000000000000000000000000000000000000000000000000028282806001900393508151811061224057fe5b60200101907effffffffffffffffffffffffffffffffffffffffffffffffffffffffffffff1916908160001a905350600a868161227957fe5b0495506121f5565b819450505050505b919050565b60606122ca83836040518060200160405280600081525060405180602001604052806000815250604051806020016040528060008152506123e9565b905092915050565b600073ffffffffffffffffffffffffffffffffffffffff166003600083815260200190815260200160002060009054906101000a900473ffffffffffffffffffffffffffffffffffffffff1673ffffffffffffffffffffffffffffffffffffffff161461238d5760006003600083815260200190815260200160002060006101000a81548173ffffffffffffffffffffffffffffffffffffffff021916908373ffffffffffffffffffffffffffffffffffffffff1602179055505b50565b6123a8600182600001546123c990919063ffffffff16565b816000018190555050565b6001816000016000828254019250508190555050565b6000828211156123d857600080fd5b600082840390508091505092915050565b6060808690506060869050606086905060608690506060869050606081518351855187518951010101016040519080825280601f01601f1916602001820160405280156124455781602001600182028038833980820191505090505b509050606081905060008090506000809050600090505b88518110156125095788818151811061247157fe5b60200101517f010000000000000000000000000000000000000000000000000000000000000090047f0100000000000000000000000000000000000000000000000000000000000000028383806001019450815181106124cd57fe5b60200101907effffffffffffffffffffffffffffffffffffffffffffffffffffffffffffff1916908160001a905350808060010191505061245c565b600090505b87518110156125bb5787818151811061252357fe5b60200101517f010000000000000000000000000000000000000000000000000000000000000090047f01000000000000000000000000000000000000000000000000000000000000000283838060010194508151811061257f57fe5b60200101907effffffffffffffffffffffffffffffffffffffffffffffffffffffffffffff1916908160001a905350808060010191505061250e565b600090505b865181101561266d578681815181106125d557fe5b60200101517f010000000000000000000000000000000000000000000000000000000000000090047f01000000000000000000000000000000000000000000000000000000000000000283838060010194508151811061263157fe5b60200101907effffffffffffffffffffffffffffffffffffffffffffffffffffffffffffff1916908160001a90535080806001019150506125c0565b600090505b855181101561271f5785818151811061268757fe5b60200101517f010000000000000000000000000000000000000000000000000000000000000090047f0100000000000000000000000000000000000000000000000000000000000000028383806001019450815181106126e357fe5b60200101907effffffffffffffffffffffffffffffffffffffffffffffffffffffffffffff1916908160001a9053508080600101915050612672565b600090505b84518110156127d15784818151811061273957fe5b60200101517f010000000000000000000000000000000000000000000000000000000000000090047f01000000000000000000000000000000000000000000000000000000000000000283838060010194508151811061279557fe5b60200101907effffffffffffffffffffffffffffffffffffffffffffffffffffffffffffff1916908160001a9053508080600101915050612724565b82995050505050505050505095945050505050565b828054600181600116156101000203166002900490600052602060002090601f016020900481019282601f1061282757805160ff1916838001178555612855565b82800160010185558215612855579182015b82811115612854578251825591602001919060010190612839565b5b5090506128629190612892565b5090565b81548183558181111561288d5781836000526020600020918201910161288c9190612892565b5b505050565b6128b491905b808211156128b0576000816000905550600101612898565b5090565b90565b6000813590506128c681613c22565b92915050565b600082601f8301126128dd57600080fd5b60026128f06128eb8261397d565b613950565b9150818385604084028201111561290657600080fd5b60005b83811015612936578161291c8882612940565b845260208401935060408301925050600181019050612909565b5050505092915050565b600082601f83011261295157600080fd5b600261296461295f8261399f565b613950565b9150818385602084028201111561297a57600080fd5b60005b838110156129aa57816129908882612b39565b84526020840193506020830192505060018101905061297d565b5050505092915050565b600082601f8301126129c557600080fd5b60026129d86129d3826139c1565b613950565b915081838560208402820111156129ee57600080fd5b60005b83811015612a1e5781612a048882612b39565b8452602084019350602083019250506001810190506129f1565b5050505092915050565b600081359050612a3781613c39565b92915050565b600081519050612a4c81613c39565b92915050565b600081359050612a6181613c50565b92915050565b600081359050612a7681613c67565b92915050565b600081519050612a8b81613c67565b92915050565b600082601f830112612aa257600080fd5b8135612ab5612ab0826139e3565b613950565b91508082526020830160208301858383011115612ad157600080fd5b612adc838284613bcf565b50505092915050565b600082601f830112612af657600080fd5b8135612b09612b0482613a0f565b613950565b91508082526020830160208301858383011115612b2557600080fd5b612b30838284613bcf565b50505092915050565b600081359050612b4881613c7e565b92915050565b600060208284031215612b6057600080fd5b6000612b6e848285016128b7565b91505092915050565b60008060408385031215612b8a57600080fd5b6000612b98858286016128b7565b9250506020612ba9858286016128b7565b9150509250929050565b600080600060608486031215612bc857600080fd5b6000612bd6868287016128b7565b9350506020612be7868287016128b7565b9250506040612bf886828701612b39565b9150509250925092565b60008060008060808587031215612c1857600080fd5b6000612c26878288016128b7565b9450506020612c37878288016128b7565b9350506040612c4887828801612b39565b925050606085013567ffffffffffffffff811115612c6557600080fd5b612c7187828801612a91565b91505092959194509250565b60008060408385031215612c9057600080fd5b6000612c9e858286016128b7565b9250506020612caf85828601612a28565b9150509250929050565b60008060408385031215612ccc57600080fd5b6000612cda858286016128b7565b9250506020612ceb85828601612b39565b9150509250929050565b6000806000806000806101808789031215612d0f57600080fd5b6000612d1d89828a016128b7565b9650506020612d2e89828a01612b39565b9550506040612d3f89828a016129b4565b9450506080612d5089828a016128cc565b935050610100612d6289828a016129b4565b925050610140612d7489828a016129b4565b9150509295509295509295565b600080600060608486031215612d9657600080fd5b6000612da4868287016128b7565b9350506020612db586828701612b39565b925050604084013567ffffffffffffffff811115612dd257600080fd5b612dde86828701612ae5565b9150509250925092565b600060208284031215612dfa57600080fd5b6000612e0884828501612a3d565b91505092915050565b60008060408385031215612e2457600080fd5b6000612e3285828601612a52565b925050602083013567ffffffffffffffff811115612e4f57600080fd5b612e5b85828601612ae5565b9150509250929050565b600080600060608486031215612e7a57600080fd5b6000612e8886828701612a52565b935050602084013567ffffffffffffffff811115612ea557600080fd5b612eb186828701612ae5565b925050604084013567ffffffffffffffff811115612ece57600080fd5b612eda86828701612a91565b9150509250925092565b600080600060608486031215612ef957600080fd5b6000612f0786828701612a52565b9350506020612f1886828701612b39565b9250506040612f29868287016128b7565b9150509250925092565b600060208284031215612f4557600080fd5b6000612f5384828501612a67565b91505092915050565b600060208284031215612f6e57600080fd5b6000612f7c84828501612a7c565b91505092915050565b600060208284031215612f9757600080fd5b6000612fa584828501612b39565b91505092915050565b6000612fba8383613188565b60408301905092915050565b6000612fd283836131df565b60408301905092915050565b6000612fea838361364f565b60208301905092915050565b6000613002838361366d565b60208301905092915050565b61301781613b99565b82525050565b61302681613b1b565b82525050565b61303581613a59565b61303f8184613ab7565b925061304a82613a3b565b8060005b8381101561307b5781516130628782612fae565b965061306d83613a90565b92505060018101905061304e565b505050505050565b61308c81613a59565b6130968184613ac2565b92506130a182613a3b565b8060005b838110156130d25781516130b98782612fc6565b96506130c483613a90565b9250506001810190506130a5565b505050505050565b6130e381613a6f565b6130ed8184613ad8565b92506130f882613a4f565b8060005b838110156131295781516131108782612fde565b965061311b83613aaa565b9250506001810190506130fc565b505050505050565b61313a81613a6f565b6131448184613aee565b925061314f82613a4f565b8060005b838110156131805781516131678782612ff6565b965061317283613aaa565b925050600181019050613153565b505050505050565b61319181613a64565b61319b8184613acd565b92506131a682613a45565b8060005b838110156131d75781516131be8782612fde565b96506131c983613a9d565b9250506001810190506131aa565b505050505050565b6131e881613a64565b6131f28184613ae3565b92506131fd82613a45565b8060005b8381101561322e5781516132158782612ff6565b965061322083613a9d565b925050600181019050613201565b505050505050565b61323f81613b2d565b82525050565b600061325082613a7a565b61325a8185613af9565b935061326a818560208601613bde565b61327381613c11565b840191505092915050565b600061328982613a85565b6132938185613b0a565b93506132a3818560208601613bde565b6132ac81613c11565b840191505092915050565b60006132c4602c83613b0a565b91507f46726f6d2061646472657373206973206e6f7420746865206f776e6572206f6660008301527f2074686520746f6b656e496400000000000000000000000000000000000000006020830152604082019050919050565b600061332a601483613b0a565b91507f546f6b656e20646f6573206e6f742065786973740000000000000000000000006000830152602082019050919050565b600061336a601883613b0a565b91507f536f6c7574696f6e206973206e6f7420766572696669656400000000000000006000830152602082019050919050565b60006133aa602083613b0a565b91507f43616c6c6572206973206e6f742074686520636f6e7472616374206f776e65726000830152602082019050919050565b60006133ea601c83613b0a565b91507f54686520676976656e206164647265737320697320696e76616c6964000000006000830152602082019050919050565b600061342a602783613b0a565b91507f436f6e74726163742069732063757272656e746c7920696e206120706175736560008301527f64207374617465000000000000000000000000000000000000000000000000006020830152604082019050919050565b6000613490601283613b0a565b91507f496e76616c696420746f206164647265737300000000000000000000000000006000830152602082019050919050565b60006134d0601883613b0a565b91507f43616c6c6572206973206e6f7420617574686f72697a656400000000000000006000830152602082019050919050565b6000613510601783613b0a565b91507f536f6c7574696f6e20616c7265616479206578697374730000000000000000006000830152602082019050919050565b6000613550602b83613b0a565b91507f436f6e74726163742069732063757272656e746c79204e4f5420696e2061207060008301527f61757365642073746174650000000000000000000000000000000000000000006020830152604082019050919050565b60006135b6602883613b0a565b91507f43616e6e6f7420617070726f76652073616d65206164647265737320746f207460008301527f72616e736665722e0000000000000000000000000000000000000000000000006020830152604082019050919050565b600061361c601b83613b0a565b91507f5468697320746f6b656e496420616c72656164792065786973747300000000006000830152602082019050919050565b61365881613b8f565b82525050565b61366781613b8f565b82525050565b61367681613b8f565b82525050565b60006136888287613131565b6040820191506136988286613083565b6080820191506136a88285613131565b6040820191506136b88284613131565b60408201915081905095945050505050565b60006020820190506136df600083018461301d565b92915050565b60006080820190506136fa600083018761300e565b613707602083018661301d565b613714604083018561365e565b81810360608301526137268184613245565b905095945050505050565b60006101408201905061374760008301876130da565b613754604083018661302c565b61376160c08301856130da565b61376f6101008301846130da565b95945050505050565b600060208201905061378d6000830184613236565b92915050565b600060208201905081810360008301526137ad818461327e565b905092915050565b600060208201905081810360008301526137ce816132b7565b9050919050565b600060208201905081810360008301526137ee8161331d565b9050919050565b6000602082019050818103600083015261380e8161335d565b9050919050565b6000602082019050818103600083015261382e8161339d565b9050919050565b6000602082019050818103600083015261384e816133dd565b9050919050565b6000602082019050818103600083015261386e8161341d565b9050919050565b6000602082019050818103600083015261388e81613483565b9050919050565b600060208201905081810360008301526138ae816134c3565b9050919050565b600060208201905081810360008301526138ce81613503565b9050919050565b600060208201905081810360008301526138ee81613543565b9050919050565b6000602082019050818103600083015261390e816135a9565b9050919050565b6000602082019050818103600083015261392e8161360f565b9050919050565b600060208201905061394a600083018461365e565b92915050565b6000604051905081810181811067ffffffffffffffff8211171561397357600080fd5b8060405250919050565b600067ffffffffffffffff82111561399457600080fd5b602082029050919050565b600067ffffffffffffffff8211156139b657600080fd5b602082029050919050565b600067ffffffffffffffff8211156139d857600080fd5b602082029050919050565b600067ffffffffffffffff8211156139fa57600080fd5b601f19601f8301169050602081019050919050565b600067ffffffffffffffff821115613a2657600080fd5b601f19601f8301169050602081019050919050565b6000819050919050565b6000819050919050565b6000819050919050565b600060029050919050565b600060029050919050565b600060029050919050565b600081519050919050565b600081519050919050565b6000602082019050919050565b6000602082019050919050565b6000602082019050919050565b600081905092915050565b600081905092915050565b600081905092915050565b600081905092915050565b600081905092915050565b600081905092915050565b600082825260208201905092915050565b600082825260208201905092915050565b6000613b2682613b6f565b9050919050565b60008115159050919050565b6000819050919050565b60007fffffffff0000000000000000000000000000000000000000000000000000000082169050919050565b600073ffffffffffffffffffffffffffffffffffffffff82169050919050565b6000819050919050565b6000613ba482613bab565b9050919050565b6000613bb682613bbd565b9050919050565b6000613bc882613b6f565b9050919050565b82818337600083830152505050565b60005b83811015613bfc578082015181840152602081019050613be1565b83811115613c0b576000848401525b50505050565b6000601f19601f8301169050919050565b613c2b81613b1b565b8114613c3657600080fd5b50565b613c4281613b2d565b8114613c4d57600080fd5b50565b613c5981613b39565b8114613c6457600080fd5b50565b613c7081613b43565b8114613c7b57600080fd5b50565b613c8781613b8f565b8114613c9257600080fd5b5056fea365627a7a72315820dcf4e2a1715766aa51a4e25669b474171c2d1503c3e31b197f6b8a9b5f18ed486c6578706572696d656e74616cf564736f6c6343000511004068747470733a2f2f73332d75732d776573742d322e616d617a6f6e6177732e636f6d2f756461636974792d626c6f636b636861696e2f63617073746f6e652f",
  "source": "pragma solidity >=0.4.21 <0.6.0;\npragma experimental ABIEncoderV2;\n\nimport './ERC721Mintable.sol';\nimport './Verifier.sol';\n\n// TODO define a contract call to the zokrates generated solidity contract <Verifier> or <renamedVerifier>\ncontract SquareVerifier is Verifier {\n}\n\n// TODO define another contract named SolnSquareVerifier that inherits from your ERC721Mintable class\ncontract SolnSquareVerifier is BreesERC721Token {\n\n     Verifier private verifierContract;\n\n    // TODO define a solutions struct that can hold an index & an address\n    struct Solution {\n        uint256 solutionIndex;\n        address solutionAddress;\n    }\n\n    // TODO define an array of the above struct\n    Solution[] private _solutions;\n\n    // TODO define a mapping to store unique solutions submitted\n    mapping(bytes32 => Solution) private _uniqueSolutionsSubmitted;\n\n    // TODO Create an event to emit when a solution is added\n    event SolutionAdded(address account);\n\n    constructor(address verifierAddress, string memory name, string memory symbol)\n    BreesERC721Token(name, symbol)\n    public {\n        verifierContract = SquareVerifier(verifierAddress);\n    }\n\n    // TODO Create a function to add the solutions to the array and emit the event\n    function addSolution(bytes32 solutionId, uint256 tokenId, address solutionAddress) public {\n        _solutions.push(Solution({\n            solutionIndex:tokenId,\n            solutionAddress:solutionAddress\n        }));\n        _uniqueSolutionsSubmitted[solutionId] = Solution({\n            solutionIndex:tokenId,\n            solutionAddress:solutionAddress\n        });\n        emit SolutionAdded(solutionAddress);\n    }\n\n    function getSolutionId(\n        uint[2] memory a,\n        uint[2][2] memory b,\n        uint[2] memory c,\n        uint[2] memory input\n    )\n    private\n    pure\n    returns(bytes32) {\n        return keccak256(abi.encodePacked(a, b, c, input));\n    }\n\n    // TODO Create a function to mint new NFT only after the solution has been verified\n    //  - make sure the solution is unique (has not been used before)\n    //  - make sure you handle metadata as well as tokenSupply\n    function mintNewNFT( \n        address to,\n        uint256 tokenId,\n        uint[2] memory a,\n        uint[2][2] memory b,\n        uint[2] memory c,\n        uint[2] memory input) public \n    {\n            bytes32 solutionId = getSolutionId(a, b, c, input);\n            require(_uniqueSolutionsSubmitted[solutionId].solutionAddress == address(0), \"Solution already exists\");\n            require(verifierContract.verifyTx(a, b, c, input), \"Solution is not verified\");\n            addSolution(solutionId, tokenId, to);\n            super.mint(to, tokenId, 'tokenURI');\n    }\n}\n\n  \n\n\n\n\n\n\n\n\n\n\n\n\n\n\n\n\n\n\n\n\n\n\n\n\n\n\n",
  "sourcePath": "/Users/victor/Victor/Udacity Blockchain/workspace/Blockchain-Capstone/eth-contracts/contracts/SolnSquareVerifier.sol",
  "compiler": {
    "name": "solc",
    "version": "0.5.17+commit.d19bba13.Emscripten.clang"
  },
  "schemaVersion": "3.0.1",
  "updatedAt": "2021-09-06T07:59:53.484Z",
  "devdoc": {
    "methods": {
      "isApprovedForAll(address,address)": {
        "details": "Tells whether an operator is approved by a given owner",
        "params": {
          "operator": "operator address which you want to query the approval of",
          "owner": "owner address which you want to query the approval of"
        },
        "return": "bool whether the given operator is approved by the given owner"
      },
      "setApprovalForAll(address,bool)": {
        "details": "Sets or unsets the approval of a given operator An operator is allowed to transfer all tokens of the sender on their behalf",
        "params": {
          "approved": "representing the status of the approval to be set",
          "to": "operator address to set the approval"
        }
      },
      "supportsInterface(bytes4)": {
        "details": "implement supportsInterface(bytes4) using a lookup table"
      },
      "tokenByIndex(uint256)": {
        "details": "Gets the token ID at a given index of all the tokens in this contract Reverts if the index is greater or equal to the total number of tokens",
        "params": {
          "index": "uint256 representing the index to be accessed of the tokens list"
        },
        "return": "uint256 token ID at the given index of the tokens list"
      },
      "tokenOfOwnerByIndex(address,uint256)": {
        "details": "Gets the token ID at a given index of the tokens list of the requested owner",
        "params": {
          "index": "uint256 representing the index to be accessed of the requested tokens list",
          "owner": "address owning the tokens list to be accessed"
        },
        "return": "uint256 token ID at the given index of the tokens list owned by the requested address"
      },
      "totalSupply()": {
        "details": "Gets the total amount of tokens stored by the contract",
        "return": "uint256 representing the total amount of tokens"
      }
    }
  },
  "userdoc": {
    "methods": {}
  }
}