{
  "contractName": "SquareVerifier",
  "abi": [
    {
      "constant": true,
      "inputs": [
        {
          "internalType": "uint256[2]",
          "name": "a",
          "type": "uint256[2]"
        },
        {
          "internalType": "uint256[2][2]",
          "name": "b",
          "type": "uint256[2][2]"
        },
        {
          "internalType": "uint256[2]",
          "name": "c",
          "type": "uint256[2]"
        },
        {
          "internalType": "uint256[2]",
          "name": "input",
          "type": "uint256[2]"
        }
      ],
      "name": "verifyTx",
      "outputs": [
        {
          "internalType": "bool",
          "name": "r",
          "type": "bool"
        }
      ],
      "payable": false,
      "stateMutability": "view",
      "type": "function",
      "signature": "0x621e9ec0"
    }
  ],
  "bytecode": "0x608060405234801561001057600080fd5b5061122c806100206000396000f3fe608060405234801561001057600080fd5b5060043610610048576000357c010000000000000000000000000000000000000000000000000000000090048063621e9ec01461004d575b600080fd5b6100676004803603610062919081019061109a565b61007d565b604051610074919061110e565b60405180910390f35b6000610087610dcd565b60405180604001604052808760006002811061009f57fe5b60200201518152602001876001600281106100b657fe5b6020020151815250816000018190525060405180604001604052806040518060400160405280886000600281106100e957fe5b60200201516000600281106100fa57fe5b602002015181526020018860006002811061011157fe5b602002015160016002811061012257fe5b6020020151815250815260200160405180604001604052808860016002811061014757fe5b602002015160006002811061015857fe5b602002015181526020018860016002811061016f57fe5b602002015160016002811061018057fe5b602002015181525081525081602001819052506040518060400160405280856000600281106101ab57fe5b60200201518152602001856001600281106101c257fe5b60200201518152508160400181905250606060026040519080825280602002602001820160405280156102045781602001602082028038833980820191505090505b50905060008090505b600281101561024c5784816002811061022257fe5b602002015182828151811061023357fe5b602002602001018181525050808060010191505061020d565b5060006102598284610279565b141561026a57600192505050610271565b6000925050505b949350505050565b6000807f30644e72e131a029b85045b68181585d2833e84879b9709143e1f593f000000190506102a7610e00565b6102af6103eb565b90508060800151516001865101146102c657600080fd5b6102ce610e47565b6040518060400160405280600081526020016000815250905060008090505b8651811015610364578387828151811061030357fe5b60200260200101511061031557600080fd5b610355826103508560800151600185018151811061032f57fe5b60200260200101518a858151811061034357fe5b6020026020010151610839565b6108cb565b915080806001019150506102ed565b5061038781836080015160008151811061037a57fe5b60200260200101516108cb565b90506103cd8560000151866020015161039f8461097c565b85604001516103b18a6040015161097c565b87606001516103c3896000015161097c565b8960200151610a16565b6103dd57600193505050506103e5565b600093505050505b92915050565b6103f3610e00565b60405180604001604052807f0a196ccb1f0af0a8534b876f9e22b1826363b9708d8bfff162a94efd4e48423081526020017f1882ce7d679fea7b19aeefdc9fc078fcbc2fd328f5832beb507308aadd75946b8152508160000181905250604051806040016040528060405180604001604052807f0694184e1fc8f760efe7b35d70d45c6b5bc1d9fcb5031ef6e03b71bf8d0c85e081526020017f2885cfc66801b78be5025a5cbe157d06c3a60e33483c3e605d88bd124addad3d815250815260200160405180604001604052807f04de3df037e7827b0525e31d019f03de316d2d34676fa724966bc0c170e3e64781526020017f2d843abf88d16dc099e95498ce1723fd4115e1112a426995fdc89efd39ea96758152508152508160200181905250604051806040016040528060405180604001604052807f29230a88d5ca5d581267c9de3e065ea80b919d9c36c74822fd1b3d707cd3526681526020017f141ef8dcdaf69a97207a7cc106dd138bb285da2b38c1d5eb6e9a89eb51507020815250815260200160405180604001604052807f07b0c4d43efd7039be8aeb400c498fe2ff68ad2b7d90b623869da051e720791d81526020017f03195054c32f41f6756097b3f174e0c5412e7c834d118b0b911dd4756f30f4538152508152508160400181905250604051806040016040528060405180604001604052807f0cd5d82529ab320685e566dbd67ccc94c79bf9ca818a7201e2d403c843ce446f81526020017f106a5e6909cf10bdfaeb6d1e64f508b52cf1c8d37c41b4c13f605d53b5f98ceb815250815260200160405180604001604052807f1bfe1d7dc56f70b324dc0bd79377585b73c61f5c69b12ee74de38ad70deace2481526020017f155dc666c09d371944555531313a64c7e604d5f982de0c0925726a34e36e8158815250815250816060018190525060036040519080825280602002602001820160405280156106da57816020015b6106c7610e61565b8152602001906001900390816106bf5790505b50816080018190525060405180604001604052807f149ea6b7b0b3c9ed93464d3595e79cbc1593ef9ca9c8d08be9f22865ee36a53281526020017f2e0d9aa523ca5a0f2bf043af3dc170d4bb09d5a6e1e7ba41f9114a07b8d05c2b815250816080015160008151811061074957fe5b602002602001018190525060405180604001604052807f2bb769eb09e23dafddf4c58c21e2ae3d11d3ebebdfe3d2fe317deafd6a0f6e2981526020017f10dc897fa6e90b5bdc0f17d478eefed2308774967ae35b65770b60adc54b2b6381525081608001516001815181106107ba57fe5b602002602001018190525060405180604001604052807f28647aa3fba4f5eee3529b320a5b54e9ffe49211a759c73eab213cbea304db7081526020017f17adca748b21db32ef55fe013032f09563b2c3ed82ba8e5f522faa050839733f815250816080015160028151811061082b57fe5b602002602001018190525090565b610841610e47565b610849610e7b565b83600001518160006003811061085b57fe5b60200201818152505083602001518160016003811061087657fe5b602002018181525050828160026003811061088d57fe5b602002018181525050600060608360808460076107d05a03fa905080600081146108b6576108b8565bfe5b50806108c357600080fd5b505092915050565b6108d3610e47565b6108db610e9d565b8360000151816000600481106108ed57fe5b60200201818152505083602001518160016004811061090857fe5b60200201818152505082600001518160026004811061092357fe5b60200201818152505082602001518160036004811061093e57fe5b602002018181525050600060608360c08460066107d05a03fa9050806000811461096757610969565bfe5b508061097457600080fd5b505092915050565b610984610e47565b60007f30644e72e131a029b85045b68181585d97816a916871ca8d3c208c16d87cfd479050600083600001511480156109c1575060008360200151145b156109e5576040518060400160405280600081526020016000815250915050610a11565b60405180604001604052808460000151815260200182856020015181610a0757fe5b0683038152509150505b919050565b600060606004604051908082528060200260200182016040528015610a5557816020015b610a42610e61565b815260200190600190039081610a3a5790505b50905060606004604051908082528060200260200182016040528015610a9557816020015b610a82610ebf565b815260200190600190039081610a7a5790505b5090508a82600081518110610aa657fe5b60200260200101819052508882600181518110610abf57fe5b60200260200101819052508682600281518110610ad857fe5b60200260200101819052508482600381518110610af157fe5b60200260200101819052508981600081518110610b0a57fe5b60200260200101819052508781600181518110610b2357fe5b60200260200101819052508581600281518110610b3c57fe5b60200260200101819052508381600381518110610b5557fe5b6020026020010181905250610b6a8282610b7a565b9250505098975050505050505050565b60008151835114610b8a57600080fd5b6000835190506000600682029050606081604051908082528060200260200182016040528015610bc95781602001602082028038833980820191505090505b50905060008090505b83811015610d6f57868181518110610be657fe5b602002602001015160000151826000600684020181518110610c0457fe5b602002602001018181525050868181518110610c1c57fe5b602002602001015160200151826001600684020181518110610c3a57fe5b602002602001018181525050858181518110610c5257fe5b602002602001015160000151600160028110610c6a57fe5b6020020151826002600684020181518110610c8157fe5b602002602001018181525050858181518110610c9957fe5b602002602001015160000151600060028110610cb157fe5b6020020151826003600684020181518110610cc857fe5b602002602001018181525050858181518110610ce057fe5b602002602001015160200151600160028110610cf857fe5b6020020151826004600684020181518110610d0f57fe5b602002602001018181525050858181518110610d2757fe5b602002602001015160200151600060028110610d3f57fe5b6020020151826005600684020181518110610d5657fe5b6020026020010181815250508080600101915050610bd2565b50610d78610ee5565b6000602082602086026020860160086107d05a03fa90508060008114610d9d57610d9f565bfe5b5080610daa57600080fd5b600082600060018110610db957fe5b602002015114159550505050505092915050565b6040518060600160405280610de0610e61565b8152602001610ded610ebf565b8152602001610dfa610e61565b81525090565b6040518060a00160405280610e13610e61565b8152602001610e20610ebf565b8152602001610e2d610ebf565b8152602001610e3a610ebf565b8152602001606081525090565b604051806040016040528060008152602001600081525090565b604051806040016040528060008152602001600081525090565b6040518060600160405280600390602082028038833980820191505090505090565b6040518060800160405280600490602082028038833980820191505090505090565b6040518060400160405280610ed2610f07565b8152602001610edf610f07565b81525090565b6040518060200160405280600190602082028038833980820191505090505090565b6040518060400160405280600290602082028038833980820191505090505090565b600082601f830112610f3a57600080fd5b6002610f4d610f4882611156565b611129565b91508183856040840282011115610f6357600080fd5b60005b83811015610f935781610f798882610f9d565b845260208401935060408301925050600181019050610f66565b5050505092915050565b600082601f830112610fae57600080fd5b6002610fc1610fbc82611178565b611129565b91508183856020840282011115610fd757600080fd5b60005b838110156110075781610fed8882611085565b845260208401935060208301925050600181019050610fda565b5050505092915050565b600082601f83011261102257600080fd5b60026110356110308261119a565b611129565b9150818385602084028201111561104b57600080fd5b60005b8381101561107b57816110618882611085565b84526020840193506020830192505060018101905061104e565b5050505092915050565b600081359050611094816111d2565b92915050565b60008060008061014085870312156110b157600080fd5b60006110bf87828801611011565b94505060406110d087828801610f29565b93505060c06110e187828801611011565b9250506101006110f387828801611011565b91505092959194509250565b611108816111bc565b82525050565b600060208201905061112360008301846110ff565b92915050565b6000604051905081810181811067ffffffffffffffff8211171561114c57600080fd5b8060405250919050565b600067ffffffffffffffff82111561116d57600080fd5b602082029050919050565b600067ffffffffffffffff82111561118f57600080fd5b602082029050919050565b600067ffffffffffffffff8211156111b157600080fd5b602082029050919050565b60008115159050919050565b6000819050919050565b6111db816111c8565b81146111e657600080fd5b5056fea365627a7a72315820296cbb00f6f77ca4759a798da82ec6011099543752ea259fbe3b42cec3e5c13c6c6578706572696d656e74616cf564736f6c63430005110040",
  "source": "pragma solidity >=0.4.21 <0.6.0;\npragma experimental ABIEncoderV2;\n\nimport './ERC721Mintable.sol';\nimport './Verifier.sol';\n\n// TODO define a contract call to the zokrates generated solidity contract <Verifier> or <renamedVerifier>\ncontract SquareVerifier is Verifier {\n}\n\n// TODO define another contract named SolnSquareVerifier that inherits from your ERC721Mintable class\ncontract SolnSquareVerifier is BreesERC721Token {\n\n     Verifier private verifierContract;\n\n    // TODO define a solutions struct that can hold an index & an address\n    struct Solution {\n        uint256 solutionIndex;\n        address solutionAddress;\n    }\n\n    // TODO define an array of the above struct\n    Solution[] private _solutions;\n\n    // TODO define a mapping to store unique solutions submitted\n    mapping(bytes32 => Solution) private _uniqueSolutionsSubmitted;\n\n    // TODO Create an event to emit when a solution is added\n    event SolutionAdded(address account);\n\n    constructor(address verifierAddress, string memory name, string memory symbol)\n    BreesERC721Token(name, symbol)\n    public {\n        verifierContract = SquareVerifier(verifierAddress);\n    }\n\n    // TODO Create a function to add the solutions to the array and emit the event\n    function addSolution(bytes32 solutionId, uint256 tokenId, address solutionAddress) public {\n        _solutions.push(Solution({\n            solutionIndex:tokenId,\n            solutionAddress:solutionAddress\n        }));\n        _uniqueSolutionsSubmitted[solutionId] = Solution({\n            solutionIndex:tokenId,\n            solutionAddress:solutionAddress\n        });\n        emit SolutionAdded(solutionAddress);\n    }\n\n    function getSolutionId(\n        uint[2] memory a,\n        uint[2][2] memory b,\n        uint[2] memory c,\n        uint[2] memory input\n    )\n    private\n    pure\n    returns(bytes32) {\n        return keccak256(abi.encodePacked(a, b, c, input));\n    }\n\n    // TODO Create a function to mint new NFT only after the solution has been verified\n    //  - make sure the solution is unique (has not been used before)\n    //  - make sure you handle metadata as well as tokenSupply\n    function mintNewNFT( \n        address to,\n        uint256 tokenId,\n        uint[2] memory a,\n        uint[2][2] memory b,\n        uint[2] memory c,\n        uint[2] memory input) public \n    {\n            bytes32 solutionId = getSolutionId(a, b, c, input);\n            require(_uniqueSolutionsSubmitted[solutionId].solutionAddress == address(0), \"Solution already exists\");\n            require(verifierContract.verifyTx(a, b, c, input), \"Solution is not verified\");\n            addSolution(solutionId, tokenId, to);\n            super.mint(to, tokenId, 'tokenURI');\n    }\n}\n\n  \n\n\n\n\n\n\n\n\n\n\n\n\n\n\n\n\n\n\n\n\n\n\n\n\n\n\n",
  "sourcePath": "/Users/victor/Victor/Udacity Blockchain/workspace/Blockchain-Capstone/eth-contracts/contracts/SolnSquareVerifier.sol",
  "compiler": {
    "name": "solc",
    "version": "0.5.17+commit.d19bba13.Emscripten.clang"
  },
  "schemaVersion": "3.0.1",
  "updatedAt": "2021-09-06T07:59:53.479Z",
  "devdoc": {
    "methods": {}
  },
  "userdoc": {
    "methods": {}
  }
}